:0300000002071CD8
:0C071C00787FE4F6D8FD75813E0207638B
:0D08FB00303132333435363738392E2D4D3B
:100856000B252064697374616E63652000013A009C
:1008660002340000043600000000C100043B000012
:08087600000004300000000046
:10053F00AF8CEFFEAD8A7C00E42DF535EC3EF53443
:10054F00E4F58CF58AAC34AD351201B97B9A7A9902
:10055F0079D9783F12000EE4FBFA79207841120125
:10056F00171201F28F398E388D378C36E47F587E13
:10057F001BFDFCAB39AA38A937A836C312034F505D
:10058F000330003EC200E4FDFF12082A900906E482
:10059F0093FF120912900905E493FF1209129009B3
:1005AF0006E493FF120912900906E493FF12091251
:1005BF00900906E493FF120912900907E493FF02D2
:1005CF000912E47B107A27F9F8AF39AE38AD37ACA2
:1005DF00361202AFAC00AD01AE02AF03E47BE87A96
:1005EF0003F9F81202AF8F3BE47B107A27F9F8AFCB
:1005FF0039AE38AD37AC361202AFAC00AD01AE023A
:10060F00AF03E47BE87A03F9F81202AFAC00AD0157
:10061F00AE02AF03E47B64FAF9F81202AF8F3CE449
:10062F007B107A27F9F8AF39AE38AD37AC361202F6
:10063F00AFAC00AD01AE02AF03E47BE87A03F9F88B
:10064F001202AFAC00AD01AE02AF03E47B64FAF966
:10065F00F81202AFAC00AD01AE02AF03E47B0AFAB1
:10066F00F9F81202AF8F3DE47B107A27F9F8AF3912
:10067F00AE38AD37AC361202AFAC00AD01AE02AF43
:10068F0003E47B0AFAF9F81202AFAF038F3EE4FDE1
:10069F00FF12082AE53B9008FB93FF1209129009FD
:1006AF0005E493FF120912E53C9008FB93FF120932
:1006BF0012E53D9008FB93FF120912E53E2430FF2F
:1006CF00120912900907E493FF1209127F411200D9
:1006DF0003E53B9008FB93FF120003900905E49399
:1006EF00FF120003E53C9008FB93FF120003E53D6A
:1006FF009008FB93FF120003E53E9008FB93FF1257
:0D070F0000037F0D1200037F0A1200032279
:10036000AF8CEFFEAD8A7C00E42DF535EC3EF53424
:10037000E4F58CF58AAC34AD351201B97B9A7A99E3
:1003800079D9783F12000EE4FBFA79207841120106
:10039000171201F28F248E238D228C21E47F587E48
:1003A0001BFDFCAB24AA23A922A821C312034F5092
:1003B0000330003FC200E4FD7F0112082A900906C5
:1003C000E493FF120912900905E493FF12091290B9
:1003D0000906E493FF120912900906E493FF12093B
:1003E00012900906E493FF120912900907E493FFA3
:1003F000020912E47B107A27F9F8AF24AE23AD226C
:10040000AC211202AFAC00AD01AE02AF03E47BE859
:100410007A03F9F81202AF8F30E47B107A27F9F8EB
:10042000AF24AE23AD22AC211202AFAC00AD01AEC1
:1004300002AF03E47BE87A03F9F81202AFAC00AD37
:1004400001AE02AF03E47B64FAF9F81202AF8F3118
:10045000E47B107A27F9F8AF24AE23AD22AC211249
:1004600002AFAC00AD01AE02AF03E47BE87A03F962
:10047000F81202AFAC00AD01AE02AF03E47B64FA48
:10048000F9F81202AFAC00AD01AE02AF03E47B0A93
:10049000FAF9F81202AF8F32E47B107A27F9F8AF3D
:1004A00024AE23AD22AC211202AFAC00AD01AE02EE
:1004B000AF03E47B0AFAF9F81202AFAF038F33E41B
:1004C000FD7F0112082AE5309008FB93FF12091204
:1004D000900905E493FF120912E5319008FB93FFA0
:1004E000120912E5329008FB93FF120912E533243A
:1004F00030FF120912900907E493FF1209127F429C
:10050000120003E5309008FB93FF120003900905E9
:10051000E493FF120003E5319008FB93FF12000300
:10052000E5329008FB93FF120003E5339008FB933C
:0F053000FF1200037F0D1200037F0A1200032247
:03000B0002091CCB
:03091C00D20032D4
:10087F00D290000000000000000000000000000007
:0A088F0000000000000000C29022EB
:10089900D2920000000000000000000000000000EB
:0A08A90000000000000000C29222CF
:1008B3007C64EF4E60131CEC60087D0A1DED60F64E
:0908C30080FAEF1F70EC1E80E9C1
:0108CC002209
:1007A800758901E4F58CF58AD2A9D2AF1208CD1269
:1007B80008E612087F3091FDD28C2091FDC28C1280
:1007C800053F7F1E7E001208B31208993093FDD2B0
:1007D8008C2093FDC28C1203607F1E7E001208B32A
:0207E80080D0BF
:10082A00EFFB7A0070047F80801CEB64014A70043D
:10083A007F908012EB64024A70047F888008EB6420
:0C084A00034A70027F98EF2DFF0209089E
:1007EA00C2A58F807F017E001207FBD2A77F057EFC
:0107FA0000FE
:1007FB00D3EF9400EE940040257DC7EDD3940074A5
:10080B0080948040127C01ECD394007480948040DF
:0E081B00031C80F31D80E4EF1F70D51E80D2F9
:0108290022AC
:0A090800C2A7C2A61207EAC2A72286
:0A091200C2A7D2A61207EAC2A7226C
:1008CD007F381209087F0C1209087F061209087F6C
:0908DD00011209087F80020908DC
:1008E600438920758DFD758BFDE4F587D28ED29CEC
:0508F600C29FD29E220A
:080003008F993099FDC299228A
:10000E00EC4D6011E8497017ED33EC3304600DE4EC
:10001E00FCFFFEFD22E933E8330470F802025E12A3
:10002E00022958046009E4CC2481500628500902A4
:10003E000268284003020265C0E0EB4A7044B980B2
:10004E0006D0E0FB020254EF4E701CBD8008EBFFA1
:10005E00EAFEE9FD80EBE98DF0A4FEE5F00200F783
:10006E00E9CDF9EAFEEBFFEF89F0A4FCE5F0CE89CD
:10007E00F0A42EFFE435F0CD89F0A42DFEE435F08A
:10008E008067EF4E7005BD80D780C3EF8BF0A4ACB8
:10009E00F0EE8BF0A42CFCE435F0F8EF8AF0A42CF3
:1000AE00E5F038FCE433CB8DF0A42CFCE5F03BF806
:1000BE00EE8AF0A42CFCE5F038F8E433CF89F0A4F6
:1000CE002CFCE5F038CF3400CE89F0A42FFFE5F0FC
:1000DE003EFEE433C98DF0A42EFEE5F039CD8AF054
:1000EE00A42FFFE5F03EFEE43DFD33D0E0FB5007CC
:1000FE000BBB000F020268EC2CFCEF33FFEE33FE5D
:06010E00ED33FD0202408A
:10011400020268EC5D046005E85904700302025EA3
:10012400120229580460F6EC4860F2EC7004FDFEFB
:10013400FF22C860DB2481C85009C39860025006BE
:100144000202659850CAF582E9294B4A7005AB82D0
:1001540002025475F0007C1A7880C3EF9BEE9AED8E
:1001640099400DC3EF9BFFEE9AFEED99FDE842F036
:10017400DC23ACF0D0E0FFD0E0FED0E0FDAB822089
:10018400E7101BEB60BAEC2CFCEF33FFEE33FEED13
:1001940033FD020240E803F830E705C0F075F000D3
:1001A400EF2FFFEE33FEED33FD40B830E7C280AAF7
:1001B40075F020800E75F010800575F0087D007EC6
:1001C400007F003392D530D503120341EC33401045
:1001D400EF33FFEE33FEED33FDEC33FCD5F0ED22CF
:0E01E400E5F0247EA2D513CC92E7CDCEFF220B
:1001F200EDD2E7CD33EC3392D524814006E4FFFE05
:10020200FDFC22FCE4CFCECDCC24E0501174FF8063
:10021200EDC3CC13CCCD13CDCE13CECF13CF047000
:07022200F030D5DE020341BC
:10022900E9D2E7C933E833F892D5EDD2E7CD33EC1B
:0702390033FC5002B2D52294
:10024000EC30E7100FBF000C0EBE00080DBD00041F
:100250000BEB6014A2D5EB13FCED92E7FD2274FFCB
:10026000FCFDFEFF22E480F8A2D574FF13FC7D8024
:03027000E480EF38
:100728000207A8E493A3F8E493A34003F68001F238
:1007380008DFF48029E493A3F85407240CC8C333D2
:10074800C4540F4420C8834004F456800146F6DFA1
:10075800E4800B0102040810204080900856E47ED3
:10076800019360BCA3FF543F30E509541FFEE49396
:10077800A360010ECF54C025E060A840B8E493A35D
:10078800FAE493A3F8E493A3C8C582C8CAC583CA88
:10079800F0A3C8C582C8CAC583CADFE9DEE780BE40
:01087E000079
:1002730075F008758200EF2FFFEE33FECD33CDCC42
:1002830033CCC58233C5829BED9AEC99E5829840C5
:100293000CF582EE9BFEED9AFDEC99FC0FD5F0D6A2
:1002A300E4CEFBE4CDFAE4CCF9A88222B800C1B9CC
:1002B3000059BA002DEC8BF084CFCECDFCE5F0CB0A
:1002C300F97818EF2FFFEE33FEED33FDEC33FCEB43
:1002D30033FB10D703994004EB99FB0FD8E5E4F9FE
:1002E300FA227818EF2FFFEE33FEED33FDEC33FCEB
:1002F300C933C910D7059BE99A4007EC9BFCE99ADF
:10030300F90FD8E0E4C9FAE4CCFB2275F010EF2F23
:10031300FFEE33FEED33FDCC33CCC833C810D70723
:100323009BEC9AE899400AED9BFDEC9AFCE899F85E
:0E0333000FD5F0DAE4CDFBE4CCFAE4C8F922F1
:0E034100C3E49FFFE49EFEE49DFDE49CFC22CD
:10034F00EB9FF5F0EA9E42F0E99D42F0E89C45F004
:01035F00227B
:00000001FF
