:04130400022E0000B5
:10124200EFFB7A0070047F80801CEB64014A70041B
:101252007F908012EB64024A70047F888008EB64FE
:0C126200034A70027F98EF2DFF021388F2
:0713AC00D288D2A8D2AF22C3
:030003000210BB2D
:1010BB00C0E0C0F0C083C082C0D075D000C000C0FB
:1010CB0001C002C003C004C005C006C0077F0A7E72
:1010DB00001212E620B208052FE52F7002052E7FB5
:1010EB00647E001212E6D007D006D005D004D003E0
:1010FB00D002D001D000D0D0D082D083D0F0D0E0BD
:01110B0032B1
:0713B300D28AD2AAD2AF22B8
:0300130002106870
:10106800C0E0C0F0C083C082C0D075D000C000C04E
:1010780001C002C003C004C005C006C0077F0A7EC5
:10108800001212E620B311C37406952F25E0243010
:10109800F80806E618700106D007D006D005D00477
:1010A800D003D002D001D000D0D0D082D083D0F0ED
:0310B800D0E03253
:100EAA001213211212131213AC1213B312133AE5CE
:100EBA002F6407452E70031212131213BFE4FDFFAD
:100ECA001212427F321213927F30121392E50924D2
:100EDA0030FF121392E50B2430FF1213927F2D126A
:100EEA001392E50D2430FF121392E50F2430FF12FE
:100EFA0013927F2D121392E5112430FF121392E5FB
:100F0A00132430FF121392E4FD7F01121242E515F9
:100F1A002430FF121392E5172430FF1213927F2D0B
:100F2A00121392E5192430FF121392E51B2430FFA5
:100F3A001213927F3A121392E51D2430FF12139274
:100F4A00E51F2430FF121392E4FD7F03121242E5DB
:100F5A002F2430FF121392E52F6407452E70057F68
:100F6A0001121388E52F6409452E6003020EB0F5BD
:060F7A002EF52F020EB05F
:10119500C2A58F807F017E001211A6D2A77F057E92
:0111A5000049
:1011A600D3EF9400EE940040257DC7EDD3940074F0
:1011B60080948040127C01ECD3940074809480402B
:0E11C600031C80F31D80E4EF1F70D51E80D245
:0111D40022F8
:0A138800C2A7C2A6121195C2A72247
:0A139200C2A7D2A6121195C2A7222D
:101321007F381213887F0C1213887F061213887F6F
:09133100011213887F8002138869
:0513BA0000000000002E
:081308000649C9E3CACFB6C8CB
:10126E00EFFB7A0070047F80801CEB64014A7004EF
:10127E007F908012EB64024A70047F888008EB64D2
:0C128E00034A70027F98EF2DFF021388C6
:10133A001213687D077F0212126E7F43121392D234
:07134A00B5121351020C4C17
:040C4C008E3E8F3F0A
:100C500078407C007D007BFF7A1379BA7E007F05A7
:100C6000120B8DC3E53E6480948050247D037F0287
:100C700012126E75992D3099FDC2997F2D12139223
:100C8000E53F153F7002153E633FFF633EFF801452
:100C90007D037F0212126E7F2B12139275992B30F7
:100CA00099FDC299AC3EAD3FEC120A038F488E47C6
:100CB0008D468C45E4FFFE7DC87C40AB48AA47A921
:100CC00046A8451208F8E4FBFAF9783F1208071223
:100CD0000A3C8E3E8F3FAE3EAF3F7C277D10120B0D
:100CE000B38F40AE3EAF3F7C277D10120BB37E0327
:100CF0007FE8CFCDCFCECCCE120BB38F41AE3EAF7F
:100D00003F7C037DE8120BB37E007F64CFCDCFCE56
:100D1000CCCE120BB38F42AE3EAF3F7C007D64124F
:100D20000BB37E007F0ACFCDCFCECCCE120BB38FCC
:100D300043AE3EAF3F7C007D0A120BB38D447D0471
:100D40007F0212126EE5412430FF121392E5412416
:100D500030F5993099FDC299E5422430FF12139283
:100D6000E5422430F5993099FDC2997F2E121392F5
:100D700075992E3099FDC299E5432430FF121392E4
:100D8000E5432430F5993099FDC299E5442430FFBC
:100D9000121392E5442430F5993099FDC299E4FF8D
:100DA000EFC3940674809480500F74492FF8E6F5D1
:090DB000993099FDC2990F80E70A
:010DB9002217
:10136800759850758920758780758DF3758BF3D2C4
:021378008E22C3
:1012E600D3EF9400EE940040147D6E7C00ED1D70EB
:0D12F600011CED4C70F7EF1F70E61E80E349
:0113030022C7
:10129A00C2B77B46AF031BEF70FAD2B7FB30B71564
:1012AA007F017E001212E60BEBD3940574809480C2
:0712BA0040EB7F00227F01E1
:0112C100220A
:0C11530012129A7F017E001212E67FCC7F
:10115F00E4FBFAC2B70540E5407002053FEF13927A
:10116F00B7753F00754006E5401540AC3F7002155E
:10117F003F4C70F3D2B7EFC313FF0BBB00010AEB69
:05118F0064084A70CE67
:011194002238
:1011D5007D087C00C2B70FBF0000D2B70FBF00006B
:1011E5000FBF0000A2B7E433C43333335480FBE9A7
:1011F500C3134BF97E007F04EF1FAA0670011E4A38
:0D12050070F6ED1D70011CED4C70C9AF01BD
:0112120022B9
:08139C001211537F4402115F9E
:0813A4001211537FBE02115F1C
:10135100E4FFFE12139C1213A41211D58F3E121139
:06136100D5EFFEE53EFFA2
:011367002263
:100DBA00C3E52F9407E52E6480948040031212C283
:100DCA00E53CC4F854F0C868F508E53DC4540F483A
:100DDA00F509750A00E53D540FF50BE538C4F854DA
:100DEA00F0C868F50CE539C4540F48F50D750E00C6
:100DFA00E539540FF50FE536C4F854F0C868F51014
:100E0A00E537C4540F48F511751200E537540FF54C
:100E1A0013E534C4F854F0C868F514E535C4540F22
:100E2A0048F515751600E535540FF517E532C4F87F
:100E3A0054F0C868F518E533C4540F48F519751A03
:100E4A0000E533540FF51BE530C4F854F0C868F5D3
:100E5A001CE531C4540F48F51D751E00E531540FC9
:100E6A00F51FE4FFFEEF25E02408F8E6FC08E6D3C8
:100E7A009409EC9400401DEF25E02408F80874F664
:100E8A0026F61874FF36F6EF25E02406F80806E67B
:0F0E9A00187001060FBF00010EEF640C4E70C6FA
:010EA9002226
:0313BF00020DBA62
:0E137A0081838587898B8D80828486888A8C0A
:101310000E3000000037000300100004000400201D
:10110C00C2B500C2B600D2B500E4FEEEC3940874BA
:10111C008094805011EF1392B4EFC313FFD2B6003A
:10112C00C2B6000E80E5E4FEEEC394087480948091
:10113C005011ED1392B4EDC313FDD2B600C2B6003C
:06114C000E80E5C2B500B3
:01115200227A
:10100C00C2B500C2B600D2B500E4FDEDC3940874BD
:10101C008094805011EF1392B4EFC313FFD2B6003B
:10102C00C2B6000D80E500E4FDEDC3940874809415
:10103C0080501AA2B4E433FFC43333335480FCEE33
:10104C00C3134CFED2B600C2B6000D80DCC2B50094
:0B105C00D2B600C2B400D2B400AF0650
:011067002266
:10121300E4FD7F8E12110CE4FCECC39407748094FC
:10122300805015EC25E02430F808E6FDEC9013819E
:0F12330093FF12110C0C80E17D807F8E02110C55
:1012C200E4FBEBC39407748094805017EB90137A7D
:1012D20093FF12100CEB25E02430F8760008A607E5
:0312E2000B80DF9F
:0112E50022E6
:10080000020AA8E86480F8E933E83360110460F074
:10081000ED33EC337009E8FCE9FDEAFEEBFF22045E
:1008200060DED3EB9FEA9EE99DE8C2E78CF0C2F759
:1008300095F0400CE8CCF8E9CDF9EACEFAEBCFFB25
:10084000120A7385D0F05804700320D5B3E8047001
:10085000075002B2D5020AB292D5EC0460F7E4CC9C
:10086000C0E0C398F8603B94186008400DD0E0FBEE
:10087000020A8AE4FBFAC9FC8028E830E406E4C9ED
:10088000FBE4CAFCE830E305E4C9CACBFCE8540742
:100890006010F8C3E913F9EA13FAEB13FBEC13FC4D
:1008A000D8F130F52FC3E49CFCEF9BFFEE9AFEEDF0
:1008B00099FDD0E0FBEF4E4D4C701222DB03020A93
:1008C000AFEC2CFCEF33FFEE33FEED33FDED30E704
:1008D000EB020A8AEF2BFFEE3AFEED39FDD0E0FB8A
:1008E00050130BBB0003020AB2ED13FDEE13FEEF33
:0808F00013FFEC13FC020A8A5D
:1008F800EC4D6011E8497017ED33EC3304600DE4FA
:10090800FCFFFEFD22E933E8330470F8020AA8125E
:100918000A7358046009E4CC24815006285009025F
:100928000AB2284003020AAFC0E0EB4A7044B9801B
:1009380006D0E0FB020A9EEF4E701CBD8008EBFF5C
:10094800EAFEE9FD80EBE98DF0A4FEE5F00209E19D
:10095800E9CDF9EAFEEBFFEF89F0A4FCE5F0CE89DA
:10096800F0A42EFFE435F0CD89F0A42DFEE435F097
:100978008067EF4E7005BD80D780C3EF8BF0A4ACC5
:10098800F0EE8BF0A42CFCE435F0F8EF8AF0A42C00
:10099800E5F038FCE433CB8DF0A42CFCE5F03BF813
:1009A800EE8AF0A42CFCE5F038F8E433CF89F0A403
:1009B8002CFCE5F038CF3400CE89F0A42FFFE5F009
:1009C8003EFEE433C98DF0A42EFEE5F039CD8AF061
:1009D800A42FFFE5F03EFEE43DFD33D0E0FB5007D9
:1009E8000BBB000F020AB2EC2CFCEF33FFEE33FE18
:0609F800ED33FD020A8A46
:1009FE0075F020800E75F010800575F0087D007E74
:100A0E00007F003392D530D503120BE9EC33401042
:100A1E00EF33FFEE33FEED33FDEC33FCD5F0ED227C
:0E0A2E00E5F0247EA2D513CC92E7CDCEFF22B8
:100A3C00EDD2E7CD33EC3392D524814006E4FFFEB2
:100A4C00FDFC22FCE4CFCECDCC24E0501174FF8011
:100A5C00EDC3CC13CCCD13CDCE13CECF13CF0470AE
:070A6C00F030D5DE020BE9BA
:100A7300E9D2E7C933E833F892D5EDD2E7CD33ECC9
:070A830033FC5002B2D52242
:100A8A00EC30E7100FBF000C0EBE00080DBD0004CD
:100A9A000BEB6014A2D5EB13FCED92E7FD2274FF79
:100AAA00FCFDFEFF22E480F8A2D574FF13FC7D80D2
:030ABA00E480EFE6
:03000000020F806C
:0C0F8000787FE4F6D8FD75814E020FC7A3
:100ABD00E709F608DFFA8046E709F208DFFA803E1B
:100ACD0088828C83E709F0A3DFFA8032E309F60808
:100ADD00DFFA8078E309F208DFFA807088828C8370
:100AED00E309F0A3DFFA806489828A83E0A3F60824
:100AFD00DFFA805889828A83E0A3F208DFFA804CFE
:100B0D0080D280FA80C680D4806980F280338010D4
:100B1D0080A680EA809A80A880DA80E280CA80333D
:100B2D0089828A83ECFAE493A3C8C582C8CCC583B5
:100B3D00CCF0A3C8C582C8CCC583CCDFE9DEE78085
:100B4D000D89828A83E493A3F608DFF9ECFAA9F004
:100B5D00EDFB2289828A83ECFAE0A3C8C582C8CC5A
:100B6D00C583CCF0A3C8C582C8CCC583CCDFEADE73
:100B7D00E880DB89828A83E493A3F208DFF980CCD5
:100B8D0088F0EF60010E4E60C388F0ED2402B404CE
:100B9D000050B9F582EB2402B4040050AF23234575
:060BAD008223900B0D7382
:100BB300C2D5EC30E709B2D5E4C39DFDE49CFCEE5D
:100BC30030E715B2D5E4C39FFFE49EFE120BF7C3D3
:100BD300E49DFDE49CFC8003120BF730D507C3E4CE
:060BE3009FFFE49EFE22CC
:0E0BE900C3E49FFFE49EFEE49DFDE49CFC221D
:100F8C00020EAAE493A3F8E493A34003F68001F2C3
:100F9C0008DFF48029E493A3F85407240CC8C33366
:100FAC00C4540F4420C8834004F456800146F6DF35
:100FBC00E4800B0102040810204080901304E47EAE
:100FCC00019360BCA3FF543F30E509541FFEE4932A
:100FDC00A360010ECF54C025E060A840B8E493A3F1
:100FEC00FAE493A3F8E493A3C8C582C8CAC583CA1C
:100FFC00F0A3C8C582C8CAC583CADFE9DEE780BED4
:0113200000CC
:100BF700BC000BBE0029EF8DF084FFADF022E4CCE2
:100C0700F875F008EF2FFFEE33FEEC33FCEE9DECAA
:100C1700984005FCEE9DFE0FD5F0E9E4CEFD22EDF0
:100C2700F8F5F0EE8420D21CFEADF075F008EF2F3A
:100C3700FFED33FD4007985006D5F0F222C398FD2B
:050C47000FD5F0EA22C8
:00000001FF
