:1017C70032303232003A0076696E3A002E0073707A
:0517D7006565643A00A5
:1016E5000515FBF7EFDFDF011B00011A00020B00F8
:0116F50000F4
:1017B200758920758DFD758BFDE4F587D28ED29CDF
:0517C200C29FD29E222F
:08184C008F993099FDC2992229
:1009E60012185C120E411215441212D51216581224
:1009F60016C67F90121684750D008F0EAF1AEF3350
:100A060095E04F7040AE0DAF0EFC7D05120C877D54
:100A1600FF120CEEEF25E0FFEE33FEC3740B9FFFD3
:100A2600E49EFEEF250CF50CEE350BF50BC3E50C3D
:100A36009450E50B64809480404B751A0174102520
:100A46001BF8068040AE0DAF0E7C007D05120C87AC
:100A56007DFF120CEEEF25E0FFEE33FEC3740B9F15
:100A6600FFE49EFEC3E50C9FF50CE50B9EF50BD34C
:100A7600E50C9400E50B648094805009750B0075B5
:100A86000C01E4F51AAD0C7FC87E0012110C7FE84C
:100A96007E03121838E4F51CAF1CEF3395E0FEC355
:100AA600EF9404EE648094805023E51CC43354E034
:100AB6002402FF7410251CF8E6FB3395E0FA752531
:100AC60003752610E4FD12118D051C80CB7BFF7A81
:100AD6001779C77526107D027F02121421E54AC4D4
:100AE600540F2430FB752D107D027F2A120F21E54D
:100AF6004A540F2430FB752D107D027F35120F21CD
:100B0600E549C4540F2430FB752D107D027F4C122D
:100B16000F21E549540F2430FB752D107D027F57B8
:100B2600120F21E548C4540F2430FB752D107D04A7
:100B36007F02120F21E548540F2430FB752D107DDE
:100B4600047F0D120F217BFF7A1779CC7526107D55
:100B5600047F16121421E547C4540F2430FB752D6B
:100B6600107D047F1E120F21E547540F2430FB75BC
:100B76002D107D047F29120F217BFF7A1779CC7502
:100B860026107D047F32121421E546C4540F24300A
:100B9600FB752D107D047F3A120F21E546540F2474
:100BA60030FB752D107D047F45120F217BFF7A17D0
:100BB60079CE7526087D067F02121421AE0DAF0E82
:100BC6007C007D05120C877DFF120CEEAA06AB0792
:100BD6007525017526087D067F2012118D7BFF7A0B
:100BE6001779D37526087D067F29121421AE0DAF1D
:100BF6000E7C007D32120C877DFF120CEE7C007D90
:100C06000A120CEEAA04AB057525017526087D06A9
:100C16007F2D12118D7BFF7A1779D57526087D06F3
:100C26007F42121421AE0DAF0E7C007D05120C879B
:100C36007DFF120CEEEF25E0FFEE33FEC3740B9F33
:100C4600FBE49EFA7525027526087D067F6E121155
:040C56008D0209F50D
:06110C008D21AB07AA06CD
:1011120075254075244275230F752200AF25AE2434
:10112200AD23AC22C006C007E4F9F8D007D00612FE
:1011320014658F258E248D238C22AF21E4FCFDFEC5
:10114200AB25AA24A923A822120D24E47B64FAF970
:10115200F8121465AD07AC06C3E5259DFFE5249C96
:10116200AB07FAC3E49DFDE49CFCC3E49BFBE49A59
:101172008C0F8D14F5098B0A5389F0438901850F71
:0A1182008C85148AD28CD2A9D2AF5A
:01118C002240
:08185400C28CC2A975A0FF229D
:03000B000214DEFE
:1014DE00C0E0C0D075D000C000C007AFA0EFF47060
:1014EE001085098C850A8A7415251BF8E6F5A080EF
:1014FE0009850F8C85148A75A0FFD007D000D0D037
:03150E00D0E032F8
:0300030002127076
:10127000C0E0C0F0C083C082C0D075D000C000C044
:1012800001C002C003C004C005C006C00720B22AC6
:101290007FE87E0312183820B220750B00750C0110
:1012A000751A00051BAF1BEF3395E0FEC3EF9404E6
:1012B000EE648094804003751B00D007D006D005F3
:1012C000D004D003D002D001D000D0D0D082D083BF
:0512D000D0F0D0E03277
:07185C00D288D2A8D2AF220E
:0B183800EF1FAC0670011E4C70F62282
:0316F600013A03B3
:1012D500E53A14601F14602E14603D14604C24041C
:1012E50070517D417F901216A67F9012168475303D
:1012F500008F31227D427F901216A67F90121684B0
:101305007532008F33227D437F901216A67F90128F
:1013150016847534008F35227D407F901216A67F86
:10132500901216847536008F3722AB397D407F9039
:041335001215D42297
:1015D4008F218D228B2312179CAF211213DC200044
:1015E40002C322AF221213DC200002C322AF231253
:0C15F40013DC200002C3221217DCD322FB
:1016A6008F218D2212179CAF211213DC200002C35A
:1016B60022AF221213DC200002C3221217DCD3222F
:021684008F21B4
:1016860012179CE52104FF1213DC2000037F0022C1
:0F1696001215A78F22D2011217551217DCAF229F
:0116A5002222
:10179C00D29100D2900000000000C2910000000025
:0617AC0000C290000022C3
:1017DC00C29100D2900000000000D29100000000E5
:0117EC0022DA
:1013DC00E4FEEEC39408748094805020A806EF08B5
:1013EC008002C333D8FC30E704D2918002C2910052
:1013FC00D2900000000000C2900E80D60000D29166
:10140C000000D290000000309104C2008002D20093
:04141C00C29000007A
:0114200022A9
:1015A700E4FFD291FEEEC394087480948050190032
:1015B700C2900000000000D2900000EF25E0FF304D
:0C15C70091010F00000E80DDC2900000BA
:0115D30022F5
:10175500200104C2918002D291000000D2900000C5
:08176500000000C29000002208
:10000E000000000000000000002F000000000700AC
:10001E00070000147F147F1400242A7F2A12006226
:10002E0064081323003649552250000005030000D2
:10003E0000001C224100000041221C000014083E5A
:10004E0008140008083E0808000000A06000000820
:10005E000808080800006060000000201008040274
:10006E00003E5149453E0000427F40000042615132
:10007E004946002141454B31001814127F100027CC
:10008E0045454539003C4A4949300001710905038F
:10009E0000364949493600064949291E00003636C0
:1000AE000000000056360000000814224100001423
:1000BE001414141400004122140800020151090600
:1000CE0000324959513E007C1211127C007F494981
:1000DE004936003E41414122007F4141221C007FB2
:1000EE0049494941007F09090901003E4149497AC0
:1000FE00007F0808087F0000417F4100002040413A
:10010E003F01007F08142241007F40404040007FA5
:10011E00020C027F007F0408107F003E4141413EE9
:10012E00007F09090906003E4151215E007F091931
:10013E0029460046494949310001017F0101003F2E
:10014E004040403F001F2040201F003F4038403FAE
:10015E000063140814630007087008070061514912
:10016E00454300007F41410000552A552A550000A5
:10017E0041417F0000040201020400404040404023
:10018E00000001020400002054545478007F4844BB
:10019E00443800384444442000384444487F0038F2
:1001AE005454541800087E0901020018A4A4A47C1B
:1001BE00007F080404780000447D400000408084E5
:1001CE007D00007F102844000000417F4000007C2D
:1001DE0004180478007C0804047800384444443839
:1001EE0000FC242424180018242418FC007C080485
:1001FE00040800485454542000043F444020003C5E
:10020E004040207C001C2040201C003C4030403CE4
:10021E00004428102844001CA0A0A07C0044645474
:10022E004C441414141414140000000000000000B8
:10023E000000000000000000000000F800000000B8
:10024E00000000333000000000100C06100C0600F9
:10025E00000000000000000040C07840C078400060
:10026E00043F04043F040400007088FC08300000C2
:10027E00001820FF211E0000F008F000E01800001A
:10028E0000211C031E211E0000F0088870000000D3
:10029E001E2123241927211010160E000000000025
:1002AE000000000000000000000000E01804020042
:1002BE00000000071820400000020418E0000000B3
:1002CE000040201807000000404080F080404000B1
:1002DE000202010F01020200000000F00000000007
:1002EE000101011F010101000000000000000000DB
:1002FE0080B0700000000000000000000000000050
:10030E0000010101010101010000000000000000D8
:10031E000030300000000000000000008060180473
:10032E00006018060100000000E010080810E00050
:10033E00000F102020100F00001010F80000000019
:10034E000020203F20200000007008080888700060
:10035E0000302824222130000030088888483000E0
:10036E000018202020110E000000C02010F8000000
:10037E0000070424243F240000F808888808080099
:10038E000019212020110E0000E0108888180000AE
:10039E00000F112020110E0000380808C838080080
:1003AE000000003F00000000007088080888700000
:1003BE00001C222121221C0000E010080810E00081
:1003CE000000312222110F00000000C0C00000000A
:1003DE00000000303000000000000080000000002F
:1003EE000000806000000000000080402010080027
:1003FE0000010204081020004040404040404000F0
:10040E0004040404040404000008102040800000CA
:10041E000020100804020100007048080808F000CF
:10042E000000003036010000C030C828E810E0009F
:10043E000718272423140B000000C038E00000002A
:10044E00203C23020227382008F888888870000094
:10045E00203F202020110E00C03008080808380068
:10046E00071820202010080008F808080810E000DF
:10047E00203F202020100F0008F88888E808100080
:10048E00203F20202320180008F88888E808100054
:10049E00203F200003000000C0300808083800008C
:1004AE0007182020221E020008F808000008F8088D
:1004BE00203F210101213F20000808F80808000014
:1004CE000020203F2020000000000808F808080047
:1004DE00C08080807F00000008F888C028180800BF
:1004EE00203F20012638200008F8080000000000F8
:1004FE00203F20202020300008F8F800F8F80800EF
:10050E00203F003F003F200008F830C00008F808E8
:10051E00203F200007183F00E01008080810E000F8
:10052E000F10202020100F0008F808080808F0000F
:10053E00203F210101010000E01008080810E00032
:10054E000F18242438504F0008F8888888887000C7
:10055E00203F2000030C3020007088080808380067
:10056E000038202121221C00180808F8080818005D
:10057E000000203F2000000008F808000008F808DE
:10058E00001F202020201F000878880000C838088F
:10059E00000007380E010000F80800F80008F80007
:1005AE00033C0700073C03000818688080681808A1
:1005BE0020302C03032C30200838C800C83808001F
:1005CE000000203F2000000010080808C83808006E
:1005DE002038262120201800000000FE0202020012
:1005EE000000007F40404000000C30C000000000C2
:1005FE00000000010638C00000020202FE000000EA
:10060E00004040407F00000000000402020204008F
:10061E0000000000000000000000000000000000CC
:10062E0080808080808080800002020400000000B4
:10063E0000000000000000000000808080800000AC
:10064E000019242222223F2008F80080800000009A
:10065E00003F112020110E0000000080808000005D
:10066E00000E112020201100000000808088F8006C
:10067E00000E112020103F2000008080808000009E
:10068E00001F222222221300008080F08888881802
:10069E000020203F2020000000008080808080000D
:1006AE00006B94949493600008F8008080800000A2
:1006BE00203F210000203F2000809898000000007D
:1006CE000020203F202000000000008098980000AD
:1006DE0000C08080807F000008F8000080808000CD
:1006EE00203F24022D302000000808F800000000F2
:1006FE000020203F202000008080808080808000AD
:10070E00203F20003F20003F80800080808000003E
:10071E00203F210000203F200000808080800000CC
:10072E00001F202020201F008080008080000000FD
:10073E0080FFA12020110E0000000080808080002C
:10074E00000E112020A0FF8080808000808080001D
:10075E0020203F212000010000008080808080004A
:10076E000033242424241900008080E080800000BF
:10077E000000001F2020000080800000008080000C
:10078E00001F202020103F2080808000008080806D
:10079E0000010E30080601008080008000808080FD
:1007AE000F300C030C300F00008080008080800022
:1007BE000020312E0E31200080808000008080804D
:1007CE0080818E70180601000080808080808000FD
:1007DE000021302C2221300000000000807C02021B
:1007EE0000000000003F404000000000FF0000003D
:1007FE0000000000FF0000000002027C80000000EC
:10080E000040403F00000000000601010202040407
:10081E0000000000000000000000F010101010FF9B
:10082E0010101010F000000000000000000000008A
:10083E00000000000000000000000F04040404FF8C
:10084E00040404040F00000000000000000000007B
:10085E0000000000000000004040405F55555575F7
:10086E005555555F4040400000000000000000005C
:10087E0000000000000000000040200F09498979A7
:10088E000909090F204000000000000000000000D0
:10089E00000000000000000000FE02424ACA4A4A60
:1008AE00CA4A4A4202FE000000000000000000009A
:1008BE00000000000000000000FF40504C4340408C
:1008CE004F50505C40FF0000000000000000000090
:1008DE0000000000000000000000F888888888FFF3
:1008EE0088888888F80000000000000000000000E2
:1008FE00000000000000000000001F080808087F2C
:10090E00888888889F80F0000000000000000000AA
:10091E00000000000000000080828282828282E25B
:10092E00A2928A86828080000000000000000000F3
:10093E000000000000000000000000000040807F6A
:10094E000000000000000000000000000000000099
:10095E0000000000000000002424A4FEA3220022B8
:10096E00CC0000FF000000000000000000000000AE
:10097E000000000000000000080601FF0001040452
:10098E00040404FF02020200000000000000000048
:10099E000000000000000000101010FF10900888EA
:1009AE008888FF888888080000000000000000008A
:1009BE0000000000000000000444827F018080409F
:1009CE00432C10284681800000000000000000002B
:0809DE00000000000000000011
:10172100EF4E60157D087C07ED1DAA0470011C4A6F
:0917310070F6EF1F70EA1E80E75C
:01173A00228C
:09184300D292D293C293C2922208
:07186300D292C293D293223E
:0B17FE0012157D121809AF0412157DB2
:05180900D292C2922200
:07157600AC071218437F7857
:10157D00C292E4FEEEC3940874809480501BAD07B4
:10158D00530580ED64807004D2938002C293EF25E1
:09159D00E0FFD292C2920E80DB45
:0115A6002222
:0E180E00121576121809E4FF1217FE02186375
:0E181C001215761218097F401217FE0218638B
:10160000EF24B0FFEE33FEE4FDFC12161BE4FDFCFC
:0B161000FFFE12161B7F10E4FDFCFE25
:10161B00AB07AA06ED4C600302181CAF0312180EA1
:01162B00229C
:0214A9008F1D95
:1014AB00E4F9E9FF7E00C394087480948050231202
:1014BB001600E4F51EC3E51E948074809480500FD3
:1014CB00AF1D7E007D017C0012161B051E80E609F8
:0214DB0080D0BF
:0114DD0022EC
:10170300D3EF9400EE940040147D657C18ED1D70BA
:0D171300011CED4C70F7EF1F70E61E80E327
:0117200022A6
:10173B00EF1FAA0670011E4A600FE4FDEDC3947BF8
:09174B007480948050EA0D80F3D3
:011754002272
:10162C00A907ED24B0FFE433FEE4FDFC12161BE920
:10163C0054F0C4540F7E004410FFE4FDFC12161B42
:0C164C00E9540FFF7E00E4FDFC02161BB9
:101785007F8D121617E4FDFC7F14FE12161BE4FD77
:07179500FC7FAFFE02161BF2
:1017ED00E4FDFC7F8D121611E4FDFC7FAEFE0216AA
:0117FD001BD0
:10154400E4F9E9FF7E00C394087480948050221269
:101554001600E4F521C3E521948074809480500E34
:101564007D017C00E4FFFE12161B052180E7098043
:01157400D1A5
:011575002253
:10151100E4F9E9FF7E00C39408748094805023129B
:101521001600E4F51FC3E51F948074809480500F6A
:101531007D017C007F017E0012161B051F80E609DC
:0215410080D058
:011543002285
:040F21008F2A8D2B5B
:100F2500E4F52EF9EB24E0F52ED3EF947F7480944D
:100F3500804007E4F52A052B052BE52D6410707A12
:100F4500AD2BAF2A12162CE4F9E9C39408748094EA
:100F550080502975F010E52EA429F582E435F0F5C9
:100F650083E5822436F582E5833402F583E493FF35
:100F75007E007D017C0012161B0980CDE52B04FD4A
:100F8500AF2A12162CE4F9E9C394087480948050B2
:100F95006575F010E52EA429F582E435F0F583E5B5
:100FA50082243EF582E5833402F583E493FF7E00D7
:100FB5007D017C0012161B0980CDAD2BAF2A1216C0
:100FC5002CE4F9E9C3940674809480502975F006E1
:100FD500E52EA4240EF582E5F03400F583E582299B
:100FE500F582E43583F583E493FF7E007D017C0083
:060FF50012161B0980CD5D
:010FFB0022D3
:04176D008F2AA90511
:101771007F017E00AD0119ED6009AD2A7C00120CDC
:031781008780F16D
:011784002242
:08118D008F218D228A238B249F
:10119500E4F529F527E527C395255065C3E525958C
:1011A5002714FD7F0A12176DAC23AD24CFCDCFCE0A
:1011B500CCCE120C997C007D0A120C998D28E5295C
:1011C5007023E52514FFE527C39F5019E528701204
:1011D500E526C3138527F0A42521FF85262D7B2031
:1011E5008016752901E526C3138527F0A42521FF5F
:1011F500E5282430FB85262DAD22120F21052780F9
:011205009454
:0112060022C5
:0A1421008F218D228B238A24892558
:10142B00E4F527AB23AA24A925852782758300120F
:10143B000C5AFB602485262DAD22AF21120F21748F
:10144B00082521F521D39478748094804007E4F526
:09145B002105220522052780CAA3
:011464002265
:061088008F4D8D4E8B4FD1
:10108E00E4F55012162CE4F9E9C3941074809480A0
:10109E00502B75F040E54FA42426F582E5F0340878
:1010AE00F583E58229F582E43583F583E493FF7EAB
:1010BE00007D017C0012161B05500980CBE54E0405
:1010CE00FDAF4D12162CE4F9E9C394107480948090
:1010DE00502B75F040E54FA42446F582E5F0340818
:1010EE00F583E58229F582E43583F583E493FF7E6B
:0D10FE00007D017C0012161B05500980CBFF
:01110B0022C1
:041207008F3B8B3D51
:10120B00E4F542F543E53E5407700BE53E1313132B
:10121B00541FF545800AE53E131313541F04F5457F
:10122B008D45E545C3953E503BAD45AF3B12162C66
:10123B00853B44E544C3953D5026AB3FAA40A941AD
:10124B000543E543AE427002054214F5828E8312CC
:10125B000C5AFF7E007D017C0012161B054480D3C7
:04126B00054580BEF7
:01126F00225C
:100E4100E4FDFC7FAEFE12160AE4FDFC7F40FE12BB
:100E5100161BE4FDFC7FB0FE12161BE4FDFC7F8136
:100E6100FE12161BE4FDFC7FFFFE12161BE4FDFCC7
:100E71007FA1FE12161BE4FDFC7FA6FE12161BE4E9
:100E8100FDFC7FA8FE12161BE4FDFC7F3FFE12163F
:100E91001BE4FDFC7FC8FE12161BE4FDFC7FD3FEA4
:100EA10012161BE4FDFCFFFE12161BE4FDFC7FD5B0
:100EB100FE12161BE4FDFC7F80FE12161BE4FDFCF6
:100EC1007FD8FE12161BE4FDFC7F05FE12161BE403
:100ED100FDFC7FD9FE12161BE4FDFC7FF1FE12160C
:100EE1001BE4FDFC7FDAFE12161BE4FDFC7F12FE03
:100EF10012161BE4FDFC7FDBFE12161BE4FDFC7FDA
:100F010030FE12161BE4FDFC7F8DFE12161BE4FD64
:100F1100FC7F14FE12161BE4FDFC7FAFFE02161BC4
:0E182A0081838587898B8D80828486888A8C55
:0916F90007460000120705061661
:10139500C2B500C2B600D2B500E4FEEEC39408742F
:1013A5008094805011EF1392B4EFC313FFD2B600AF
:1013B500C2B6000E80E5E4FEEEC394087480948006
:1013C5005011ED1392B4EDC313FDD2B600C2B600B1
:0613D5000E80E5C2B50028
:0113DB0022EF
:10133900C2B500C2B600D2B500E4FDEDC39408748D
:101349008094805011EF1392B4EFC313FFD2B6000B
:10135900C2B6000D80E500E4FDEDC39408748094E5
:1013690080501AA2B4E433FFC43333335480FCEE03
:10137900C3134CFED2B600C2B6000D80DCC2B50064
:0B138900D2B600C2B400D2B400AF0620
:011394002236
:10165800E4FD7F8E121395E4FCECC3940774809428
:10166800805012EC90183193FF74462CF8E6FD1266
:0C16780013950C80E47D807F8E0213959A
:1016C600E4FBEBC39407748094805012EB90182AC5
:0E16D60093FF12133974462BF8A6070B80E41D
:0116E40022E3
:03000000020FFCF0
:0C0FFC00787FE4F6D8FD758150021043A8
:100C5A00BB010CE58229F582E5833AF583E022504F
:100C6A0006E92582F8E622BBFE06E92582F8E22299
:0D0C7A00E58229F582E5833AF583E49322B3
:100C8700EF8DF0A4A8F0CF8CF0A428CE8DF0A42E81
:020C9700FE223B
:100C9900BC000BBE0029EF8DF084FFADF022E4CC3F
:100CA900F875F008EF2FFFEE33FEEC33FCEE9DEC08
:100CB900984005FCEE9DFE0FD5F0E9E4CEFD22ED4E
:100CC900F8F5F0EE8420D21CFEADF075F008EF2F98
:100CD900FFED33FD4007985006D5F0F222C398FD89
:050CE9000FD5F0EA2226
:100CEE00C2D5EC30E709B2D5E4C39DFDE49CFCEE21
:100CFE0030E715B2D5E4C39FFFE49EFE120C99C3F4
:100D0E00E49DFDE49CFC8003120C9930D507C3E4EE
:060D1E009FFFE49EFE228F
:100D2400E88FF0A4CC8BF0A42CFCE98EF0A42CFC6E
:100D34008AF0EDA42CFCEA8EF0A4CDA8F08BF0A4EC
:100D44002DCC3825F0FDE98FF0A42CCD35F0FCEB4B
:100D54008EF0A4FEA9F0EB8FF0A4CFC5F02ECD3910
:0F0D6400FEE43CFCEAA42DCE35F0FDE43CFC227D
:10146500C2D5E830E70FB2D5E4C39BFBE49AFAE4B2
:1014750099F9E498F8EC30E717B2D512149B120DE0
:10148500AFE4C39BFBE49AFAE499F9E498F8800386
:10149500120DAF30D50DE4C39FFFE49EFEE49DFD24
:0414A500E49CFC22A5
:101008000209E6E493A3F8E493A34003F68001F20F
:1010180008DFF48029E493A3F85407240CC8C333E9
:10102800C4540F4420C8834004F456800146F6DFB8
:10103800E4800B01020408102040809016E5E47E4D
:10104800019360BCA3FF543F30E509541FFEE493AD
:10105800A360010ECF54C025E060A840B8E493A374
:10106800FAE493A3F8E493A3C8C582C8CAC583CA9F
:10107800F0A3C8C582C8CAC583CADFE9DEE780BE57
:0117020000E6
:100D730075F008758200EF2FFFEE33FECD33CDCC37
:100D830033CCC58233C5829BED9AEC99E5829840BA
:100D93000CF582EE9BFEED9AFDEC99FC0FD5F0D697
:100DA300E4CEFBE4CDFAE4CCF9A88222B800C1B9C1
:100DB3000059BA002DEC8BF084CFCECDFCE5F0CBFF
:100DC300F97818EF2FFFEE33FEED33FDEC33FCEB38
:100DD30033FB10D703994004EB99FB0FD8E5E4F9F3
:100DE300FA227818EF2FFFEE33FEED33FDEC33FCE0
:100DF300C933C910D7059BE99A4007EC9BFCE99AD4
:100E0300F90FD8E0E4C9FAE4CCFB2275F010EF2F18
:100E1300FFEE33FEED33FDCC33CCC833C810D70718
:100E23009BEC9AE899400AED9BFDEC9AFCE899F853
:0E0E33000FD5F0DAE4CDFBE4CCFAE4C8F922E6
:00000001FF
